:020000040800F2
:10000000002000206D370008A5130008A913000880
:1000100000000000000000000000000000000000E0
:10002000000000000000000000000000AD13000808
:100030000000000000000000B1130008B513000824
:10004000BD370008BD370008BD370008BD370008C0
:10005000BD370008BD370008BD370008BD370008B0
:1000600000000000BD370008BD370008BD3700089C
:10007000BD370008BD37000800000000C1130008AC
:1000800000000000D1130008000000000000000084
:10009000E113000800000000BD370008BD3700086C
:1000A000BD370008BD370008BD370008A11500089E
:1000B000BD370008BD370008000000000000000048
:1000C00008B5054B054803331B1A062B03D9044B0F
:1000D000002B00D0984708BD880000208800002031
:1000E000000000000648074908B5091A8910CB0F1F
:1000F0005918491003D0044B002B00D0984708BD75
:1001000088000020880000200000000010B5074C87
:100110002378002B09D1FFF7D3FF054B002B02D02A
:10012000044800E000BF0123237010BD88000020B8
:1001300000000000DC43000808B5094B002B03D089
:100140000848094900E000BF08480368002B02D1B5
:10015000FFF7C8FF08BD064B002BF9D09847F7E71B
:1001600000000000DC4300088C0000208800002014
:1001700000000000002243088B4274D303098B4225
:100180005FD3030A8B4244D3030B8B4228D3030C67
:100190008B420DD3FF22090212BA030C8B4202D309
:1001A0001212090265D0030B8B4219D300E0090A31
:1001B000C30B8B4201D3CB03C01A5241830B8B423A
:1001C00001D38B03C01A5241430B8B4201D34B0323
:1001D000C01A5241030B8B4201D30B03C01A524188
:1001E000C30A8B4201D3CB02C01A5241830A8B420D
:1001F00001D38B02C01A5241430A8B4201D34B02F6
:10020000C01A5241030A8B4201D30B02C01A524159
:10021000CDD2C3098B4201D3CB01C01A524183090D
:100220008B4201D38B01C01A524143098B4201D347
:100230004B01C01A524103098B4201D30B01C01A72
:100240005241C3088B4201D3CB00C01A52418308EC
:100250008B4201D38B00C01A524143088B4201D319
:100260004B00C01A5241411A00D201465241104679
:100270007047FFE701B5002000F0FCF802BDC04662
:100280000029F7D003B5FFF775FF0EBC4243891A6A
:100290001847C04603460B437FD4002243088B42D5
:1002A00074D303098B425FD3030A8B4244D3030BFD
:1002B0008B4228D3030C8B420DD3FF22090212BAC2
:1002C000030C8B4202D31212090265D0030B8B423E
:1002D00019D300E0090AC30B8B4201D3CB03C01A28
:1002E0005241830B8B4201D38B03C01A5241430B03
:1002F0008B4201D34B03C01A5241030B8B4201D3F3
:100300000B03C01A5241C30A8B4201D3CB02C01A5D
:100310005241830A8B4201D38B02C01A5241430AD5
:100320008B4201D34B02C01A5241030A8B4201D3C4
:100330000B02C01A5241CDD2C3098B4201D3CB016B
:10034000C01A524183098B4201D38B01C01A52411A
:1003500043098B4201D34B01C01A524103098B421E
:1003600001D30B01C01A5241C3088B4201D3CB0009
:10037000C01A524183088B4201D38B00C01A5241EC
:1003800043088B4201D34B00C01A5241411A00D29C
:1003900001465241104670475DE0CA0F00D0494205
:1003A000031000D34042534000229C4603098B4275
:1003B0002DD3030A8B4212D3FC22890112BA030AFD
:1003C0008B420CD3890192118B4208D3890192117F
:1003D0008B4204D389013AD0921100E08909C30904
:1003E0008B4201D3CB01C01A524183098B4201D306
:1003F0008B01C01A524143098B4201D34B01C01AF1
:10040000524103098B4201D30B01C01A5241C30868
:100410008B4201D3CB00C01A524183088B4201D3D7
:100420008B00C01A5241D9D243088B4201D34B00F2
:10043000C01A5241411A00D20146634652415B1034
:10044000104601D34042002B00D549427047634615
:100450005B1000D3404201B5002000F00BF802BD54
:100460000029F8D003B5FFF715FF0EBC4243891AE7
:100470001847C0467047C046002B11D1002A0FD143
:10048000002900D1002802D00021C943081C07B46C
:10049000024802A14018029003BDC046D9FFFFFFE9
:1004A00003B4684601B5029800F022F8019B9E460D
:1004B00002B00CBC7047C046F0B583B0161C1F1CC0
:1004C0000090019100F058F8041C0D1C221C2B1CFC
:1004D000301C391C00F026F8009A019B121A8B413F
:1004E0000899201C0A604B60291C03B0F0BDC0466F
:1004F000F0B5141C83B01D1C0090019100F034F97C
:10050000221C2B1C061C0F1C00F00CF8009A019BEF
:10051000121A8B410899301C0A604B60391C03B0D9
:10052000F0BDC046F0B54F46464605042D0C2C1CC8
:10053000C0B41704160C3F0C9946030C7C4375435A
:100540005F4373437D19260CAD199C46AF4203D916
:1005500080235B029846C4444B46514343432404E2
:100560002E0C240C2D0466442C1959188919201CB2
:100570000CBC90469946F0BDF0B544465F465646E1
:100580004D46F0B41C1C85B0002900DAA9E00F1C10
:100590000021061C8846101C191C002C00DA97E06C
:1005A000341C3D1C82468946B94273D870D04946F6
:1005B000504600F085F98346391C301C00F080F964
:1005C0005B46181A031C8346203B9C4600D59CE0E2
:1005D0000023002251460092019363469940019105
:1005E00051468140019B0091BB4200D983E000D17C
:1005F0007EE0009A019B341C3D1CA41A9D41634679
:10060000002B00DA9AE000260027029603970136B5
:100610009E400396012686400296002800D171E094
:100620000099019AD30799464B464E081E43570836
:10063000002301220CE0AF4201D1A6420AD8A41B3C
:10064000BD4124196D410138A4185D41002806D030
:10065000AF42F0D9013824196D410028F8D1202289
:10066000029E039F5B46524236196F4199185AD435
:10067000281CC8402C1C5B46DC40002968DB041C9D
:100680008C40231C59468840021CB61A9F4103E047
:10069000B0428CD90026002741464B1E99410023C9
:1006A00000910193009A019B002554429D41331C07
:1006B0006340181C3B1C6B40191C009B019CC0181C
:1006C000614105B03CBC90469946A246AB46F0BDA0
:1006D0004346DB430C1C9846131C00215842A141A1
:1006E0005EE7002746428F4101214942884652E792
:1006F000B14200D87DE70026002702960397002824
:1007000000D08DE7029E039FC6E720215346091AB9
:10071000CB400022191C0023009201934B468340DA
:100720000B4301935CE75A4620239B1A2A1C9A40EC
:10073000201C131C5A46D04018439BE72026002754
:10074000331A0026029603970127DF40039761E7DB
:100750005B4620215D46C91A031CAC40CB40191CE6
:10076000231C0B438EE7C046F0B545464E46574620
:10077000E0B4041C82B00D1C914698468B4262D8AE
:100780005FD04146484600F09BF8291C061C201CFF
:1007900000F096F82023311A5B428A46C81865D4C7
:1007A0004B4683401F1C4B468B401E1CAF4258D803
:1007B00055D0A41BBD41002800DA77E000220023B9
:1007C0000092019301328240019201238B400093F9
:1007D00000293CD0FB079846404672087B0802433C
:1007E000012600270CE0AB4201D1A2420AD8A41A8C
:1007F0009D4124196D410139A4197D41002906D07C
:10080000AB42F0D9013924196D410029F8D12022D9
:100810000098019953465242001969419E183AD4F2
:100820002F1CF7405346DD40002E29DB3C1CB44012
:10083000231C5446A7403A1C801A9941009001910C
:1008400005E082429DD90023002400930194009882
:10085000019902B01CBC90469946A246F0BDA34245
:10086000A7D90022002300920193B1E720224B4632
:10087000521AD3401A1C43468B401F1C174392E761
:10088000534620245646E41A3B1CB540E3401C1C4A
:100890002B1C2343CDE7524620239B1A2A1C9A4047
:1008A000271C131C5246D7401F43BBE720230022BE
:1008B000581A0023009201930132C240019284E74A
:1008C00010B5002903D100F007F8203002E0081C21
:1008D00000F002F810BDC0461C2101231B04984201
:1008E00001D3000C10391B0A984201D3000A0839C1
:1008F0001B09984201D30009043902A2105C401878
:100900007047C0460403020201010101000000001B
:1009100000000000FEE7C04600B59BB0294A116800
:10092000294B0B40802109010B43136002230D93D7
:10093000012210920F3211921693002317938023F5
:10094000DB0218938023DB0319930DA801F0F8FF55
:10095000002803D01D48EA21FFF7DCFF0F2308938E
:100960000C3B099300230A930B930C9308A80121D5
:1009700002F0C6FA002803D01448F821FFF7CAFF96
:100980000923019300230393069301A802F0B6FB09
:10099000002804D00D4880214900FFF7BBFF02F07A
:1009A00087FBFA218900FFF7E5FB02F07FFE0420B8
:1009B00002F098FE012040420021002202F03AFE9F
:1009C0001BB000BD00700040FFE7FFFF00440008BF
:1009D00030B58BB001F044FFFFF79EFF00F024FA22
:1009E00000F082FB00F0B4FB00F010FC00F026FBEE
:1009F00000F088FC00F0CAFA00F052FA3C480121ED
:100A000000F0B2F800F002F9642001F047FF012085
:100A100000F0BEF800F0D0F8642001F03FFF0020A5
:100A200000F0B6F800F0C8F8642001F037FF0020AD
:100A3000002100F0F3F92F4B2F4819685A68012361
:100A400000F0D6F900F0B8F8642001F027FF2B4839
:100A50001021002202F0E8FD294A136802218B438D
:100A6000136000F09DFB274801F0D8FA264AD368AE
:100A700001242343D36025482549022202F0C6FE03
:100A8000244B1C60244B1B68002BFBD000240794D4
:100A900001230893214B0093214D0195214B029393
:100AA000214B039309AB049305932048204907AADF
:100AB00008AB02F0B5FE28681421FFF7EBFB01300C
:100AC0002860154B1C601B4B1C60079B002BD9D06A
:100AD00000F066FB0B4801F0A1FA01230D4A1360F8
:100AE0000021154A1160084AD1680B43D360C9E759
:100AF000900A0020140000200C440008000400505C
:100B000010E000E0DC0B002000080140F0080020AD
:100B100014440008B4000020A400002010000020AD
:100B2000040000200C0000200000002030090020FC
:100B300018440008C0000020B000002000B587B0B5
:100B400017236B441870074A106800930123019320
:100B50000933029378210022093B01F04FF807B0D6
:100B600000BDC046EC080020054B1860012903D1E8
:100B7000044A054B1A6002E0044A034B1A607047AE
:100B8000EC080020E0000020D4000020E004002059
:100B9000002309E0064A1268D218002801D100217A
:100BA00000E0FF2111700133024A9342F2D97047ED
:100BB000D4000020FF03000010B584B000241CE026
:100BC000201C5038C0B2FFF7B9FF0020FFF7B6FF76
:100BD0001020FFF7B3FFE3010A4A10680A4A1268BF
:100BE000D3180093802301931C3B02937821402269
:100BF000633B01F003F80134E4B2072CE0D904B000
:100C000010BDC046EC080020D400002008B56420C8
:100C100001F044FEAE20FFF791FF2020FFF78EFF8A
:100C20001020FFF78BFFB020FFF788FFC820FFF7E9
:100C300085FF0020FFF782FF1020FFF77FFF402095
:100C4000FFF77CFF8120FFF779FFFF20FFF776FF9A
:100C5000A120FFF773FFA620FFF770FFA820FFF782
:100C60006DFF3F20FFF76AFFA420FFF767FFD32047
:100C7000FFF764FF0020FFF761FFD520FFF75EFF5D
:100C8000F020FFF75BFFD920FFF758FF2220FFF786
:100C900055FFDA20FFF752FF1220FFF74FFFDB204E
:100CA000FFF74CFF2020FFF749FF8D20FFF746FF9D
:100CB0001420FFF743FFAF20FFF740FF0020FFF7AE
:100CC00067FFFFF779FF044B00221A805A80013238
:100CD0005A71012008BDC046D800002043B2002B45
:100CE00027DB3F2925D8134B1B79002B02D0534219
:100CF0005A41D2B2012A0ED1CB08DB01C0180E4BEB
:100D00001B68181807231940063B8B40191C0378F1
:100D1000194301700DE0CB08DB01C018064B1B68BE
:100D2000181807231940063B8B40191C03788B4386
:100D300003707047D8000020D4000020F0B55F4653
:100D400056464D464446F0B483B000910192274A7E
:100D50001288CEB292197F2A3EDC244A5288694614
:100D600049788A468B4652443F2A37DC984681466A
:100D7000002529E04B46203B5A4653435B195B0054
:100D8000019A9F5A00241CE03B1CA3401B040AD577
:100D9000164B188859880019C0B24919C9B2424681
:100DA000FFF79CFF0CE0114B188859880019C0B25E
:100DB0004919C9B2424653425A41D2B2FFF78EFF97
:100DC0000134A642E0D80135AA45D3D8074B1A888A
:100DD00096191E80484602E0002000E0002003B083
:100DE0003CBC90469946A246AB46F0BDD8000020D8
:100DF00030B583B0041C009101921D1C09E00099DC
:100E0000019A2B1CFFF79AFF031C2078834203D121
:100E1000013420780028F2D103B030BD014B188096
:100E200059807047D8000020F0B589B0184BDA6AB5
:100E300001252A43DA62DA6A2A400192019ADA6AC3
:100E400002210A43DA62DB6A0B400293029BA0276D
:100E5000FF05104C381C211C002202F0E5FB0E4E51
:100E60000E48311C002202F0DFFB0394049500249D
:100E700005940694381C03A902F008FB0396049518
:100E800005940694054803A902F000FB09B0F0BDE3
:100E900000100240181F00001F2000000004005036
:100EA00000B583B02548264B0360002303648022ED
:100EB000D20542608360C36301220261C3600362A2
:100EC0004362C362C222FF3282620363BE3AFF3AC8
:100ED0004261436383618363C36100F0C1FB002807
:100EE00003D018484D21FFF715FD012300938023FF
:100EF0005B0101931148694600F0A4FC002803D06F
:100F000010485621FFF706FD0F4B00930B4869462A
:100F100000F098FC002803D00A485E21FFF7FAFC95
:100F20000A4B00930548694600F08CFC002803D06A
:100F300004486621FFF7EEFC03B000BD300A002034
:100F40000024014088570008020000040400000843
:100F500000B587B002680B4B9A4210D10A4A536B16
:100F6000802189000B43536307230193043B0293C1
:100F700000230393A020C00501A902F087FA07B05F
:100F800000BDC046002401400010024008B51648CC
:100F9000164B0360E123DB004360002383600122E2
:100FA000C260036143618361C361036200F0C2FDFB
:100FB000002803D00E484221FFF7ACFC0A4800216C
:100FC00000F000FF002803D009484921FFF7A2FCE8
:100FD0000548002100F022FF002803D004485021DA
:100FE000FFF798FC08BDC046900A0020005400405E
:100FF0009457000800B587B002680D4B9A4214D18F
:10100000C0239B00019312230293113B03930233ED
:10101000049301330593074801A902F037FA064A01
:10102000936B802189030B43936307B000BDC046D7
:1010300000540040000400500010024008B50F4862
:101040000F4B036082235B00436000238360C36017
:1010500003614361802292008261E93AFF3AC261F2
:101060000362436283620733C36200F001FF00281A
:1010700003D004484521FFF74DFC08BDDC0A0020E1
:1010800000380040A0570008F0B587B00268134B45
:101090009A4220D1124A936B8021C9010B4393637A
:1010A0008023DB0001930227029700240394032688
:1010B0000496052305930B4D281C01A902F0E6F9BF
:1010C000C0231B0201930297039404960594281CE5
:1010D00001A902F0DBF907B0F0BDC04600380040BE
:1010E000001002400004005000B587B0164880236D
:1010F000DB0503600023436083602022C26003613C
:1011000000F072FF002803D010484121FFF702FCD5
:1011100080235B0102930C4802A900F08BFF00289A
:1011200003D00A484721FFF7F5FB00230093019302
:101130000548694601F0A6F8002803D003484E216F
:10114000FFF7E8FB07B000BDA40B0020AC57000878
:1011500000B583B00F48104B0360002343608360E9
:10116000FA23DB01C36000F03FFF002803D00B48E7
:101170005D21FFF7CFFB00230093019305486946EB
:1011800001F080F8002803D004486421FFF7C2FB77
:1011900003B000BD6C0B002000100040AC570008ED
:1011A00000B587B01648174B036000234360836087
:1011B000A0229200C260036100F016FF002803D055
:1011C00011487521FFF7A6FB80235B0102930C48B1
:1011D00002A900F02FFF002803D00B487B21FFF766
:1011E00099FB0023009301930548694601F04AF8F2
:1011F000002803D004488221FFF78CFB07B000BD14
:10120000DC0B002000080140AC57000800B587B097
:101210001548164B0360002343608360C36003617D
:1012200000F0E2FE002803D011489321FFF772FB83
:1012300080235B0102930C4802A900F0FBFE00280A
:1012400003D00B489921FFF765FB0023009301931E
:101250000548694601F016F8002803D00448A0218B
:10126000FFF758FB07B000BD340B0020001401400D
:10127000AC57000808B503688022D20593420DD10F
:101280001C4A916B01230B4393630F200021002222
:1012900002F0D0F90F2002F0FFF929E0164A93423C
:1012A0000DD1144A916B10230B439363112000213D
:1012B000002202F0BFF9112002F0EEF918E00F4A07
:1012C00093420DD10B4A516B04230B4353631420FB
:1012D0000021002202F0AEF9142002F0DDF907E04F
:1012E000074A934204D1034A516B20230B435363B3
:1012F00008BDC04600100240001000400008014038
:101300000014014008B50C480C4B036096239B0168
:10131000436000238360C36003610C2242618361E8
:10132000C3610362436201F04FFA002803D004480E
:101330004421FFF7EFFA08BD140C002000380140EB
:10134000B857000810B586B0134B02689A4220D1F6
:10135000041C124A536B8021C9010B435363C02301
:101360000193BE3B0293002303930322049205934F
:101370000B4801A902F08AF81B200021002202F08C
:1013800059F91B2002F088F92268116820230B43C9
:10139000136006B010BDC046003801400010024086
:1013A000000400507047C046FEE7C0467047C04684
:1013B0007047C04608B501F063FA02F0A5F908BD10
:1013C00008B5024800F0CEFE08BDC046A40B0020C0
:1013D00008B5024800F0C6FE08BDC0466C0B0020F0
:1013E0005D4B1B68022252421A615C4B1B68012B49
:1013F00026D15B4B1B68002B03D05A490A68013287
:101400000A600133D90F5A18012313405B1A544A5A
:101410001360A022D2055369802149004B405361DB
:10142000504B1A68504B1B689A4200DA82E0002346
:101430004C4A1360FE39494A11604C4A136079E006
:10144000022B1ED1494B1B68012B04D1802189003E
:10145000A022D2059161464A126893420DDB802298
:101460009200A023DB059A620023404A1360414AA0
:1014700013600322394B1A605CE001333B4A13606E
:1014800058E0032B1ED13B4B1B68012B04D180215C
:10149000C900A022D2059161354A126893420DDB42
:1014A0008022D200A023DB059A620023314A136018
:1014B000314A13600422294B1A603BE001332D4A64
:1014C000136037E0042B1CD12B4B1B68012B04D17C
:1014D00080210901A022D20591610A2B0DDD802215
:1014E0001201A023DB059A620023234A1360234ADA
:1014F00013600522194B1A601CE001331E4A136069
:1015000018E0052B16D11E4B1A681E4B1B6853435F
:101510001A4A126893420AD80022184B1A60013204
:101520000E4B1A60184A13680133136002E001324F
:10153000124B1A60154B1A68134B1B689A4209D854
:10154000134AD36801218B43D36000230E4A1360F2
:10155000024A13607047C046DC0B0020B400002034
:10156000BC000020C800002010000020A8000020BF
:1015700004000020D0000020C4000020AC000020A7
:10158000080000200C000020B00000200000002017
:10159000000801400122014B1A607047CC00002076
:1015A0000E4BDA691B68110716D1920614D59B06FB
:1015B00012D50A4B5A6A0121094B196009490B6877
:1015C000D2B20948C25401330B600A2A04D1002167
:1015D000C1540122054B1A607047C04600380140D3
:1015E000B8000020C000002030090020A400002026
:1015F00008B50E4B596B01220A435A639A6B80213E
:1016000049050A439A63052040420021002202F066
:1016100011F8022040420021002202F00BF80120C4
:1016200040420021002202F005F808BD00100240EF
:1016300010B582B0041C084B18680849FEF79AFDE3
:101640004443019402E0019B013B0193019B002B69
:10165000F9D102B010BDC0461C00002040420F006E
:1016600038B5002800D1DFE0041C836D002B04D1C5
:10167000C36554228354FFF76BFCA36DDB0604D4CF
:101680002268936804210B4008D0A26D10231343F5
:10169000A36500225423E2540120C6E0A06D6349F3
:1016A000014002200143A1659168013001400129F8
:1016B00004D11168C90703D4002102E0002100E031
:1016C000012100292DD16168C0200006814207D088
:1016D0008020C005814203D080200006814209D1CC
:1016E000116989008908116121680A6960680243EB
:1016F0000A610CE011698900890811614C4A10687F
:101700004C49014011601168606801431160216813
:10171000CA6818208243CA602168CA68A068024368
:10172000CA6043490868444A02400A600868A26BDC
:10173000520602430A6022689168C90004D4916885
:1017400080204005014391602168C8683B4A0240FF
:10175000CA602068C568E2682169022900D10423B3
:101760001A43236A59030A43236B59000A43636BE4
:101770001343A26991030B43E269D20313432B4342
:10178000C360A36AC222FF32934205D02268D168A7
:10179000E06A03430B43D360636A012B11D1236AD0
:1017A000002B06D12268D368802149020B43D36005
:1017B00007E0A26D20231343A365E26D01231343C9
:1017C000E365236C012B13D1226811691C4B0B407C
:1017D000136122681169636CA06C0343E06C0343DE
:1017E0000B4313612268116901230B43136107E066
:1017F00023681A69D20703D51A6901218A431A613D
:101800002268536907218B43536122685369E16B56
:101810000B4353610023E365A36D03229343023A14
:101820001343A365002000E0012038BDFDFEFFFF4B
:1018300008270140FFFFC3FFFFFFFFFD1902FEFF66
:1018400003FCFFFF38B55423C35C012B4CD00122AD
:101850005423C254026893685B0708D5826D202325
:101860001343836500225423C25401203DE00D1C24
:10187000041C1E4B496899421BD0916A2B685B037C
:101880005B0B0B4393622B685B0308D5184A136804
:10189000802109040B4313600A20FFF7C9FE2B685F
:1018A0009B031CD5124A13688021C9030B431360A4
:1018B00015E0916A2B685B035B0B994391622B687F
:1018C0005B0304D50A4A11680A4B0B4013602B686E
:1018D0009B0304D5064A1168074B0B401360002296
:1018E0005423E254002000E0022038BD0110000023
:1018F00008270140FFFF7FFFFFFFBFFF03689A69D2
:10190000920701D500229A6203689A69D20703D42C
:10191000996901220A439A617047C046F0B5059C57
:1019200005686E68670D8020C0003840054F384359
:1019300086438905890D12040A431A43144334432C
:101940006C60F0BDFF63FF0370B5041C0E1C151C1A
:1019500003689B69DB0614D400202DE0731C10D0B3
:10196000002E04D000F094FF401BB04209D9202281
:101970004123E25400232232A354023AA354032009
:101980001AE023689A699206E8D51022DA61236882
:101990002025DD61201CFFF7B1FF22685168074B4D
:1019A0000B405360042363643D33E554002342221B
:1019B000A354023AA354012070BDC04600E800FEC3
:1019C00070B5041C0D1C161C1CE0201C291C321CAC
:1019D000FFF7BAFF00281BD16B1C13D0002D04D0D9
:1019E00000F056FF801BA8420CD9636C20221343E1
:1019F00063644123E25400232232A354023AA354E5
:101A0000032006E023689B699B07DED5002000E0E9
:101A1000012070BDF8B5061C0C1C171C1D1C13E022
:101A20006B1C11D0002D05D000F032FF069BC01AB0
:101A3000A84209D920224123F25400232232B35470
:101A4000023AB354032008E033689B6923401B1B10
:101A50005A425341BB42E3D00020F8BD70B582B07A
:101A6000041C161C1D1CDAB21D4B009380235B0462
:101A7000FFF754FF201C0699079AFFF7A1FF0028E3
:101A800004D0636C042B25D1012026E0012D03D165
:101A90002368F6B29E6211E02368320A9A62201C23
:101AA0000699079AFFF78CFF002804D0636C042B7B
:101AB00012D1012011E02368F6B29E62079B0093C9
:101AC000201C80210022069BFFF7A4FF002804D0E1
:101AD000032002E0032000E0032002B070BDC046F6
:101AE0000020008070B5051C0C1C161C1AE0281C78
:101AF000211C321CFFF728FF002819D1002C04D02C
:101B000000F0C6FE801BA0420CD96B6C2022134350
:101B10006B644123EA5400232232AB54023AAB54A3
:101B2000032006E02B689B699B06E0D5002000E0BF
:101B3000012070BD10B5002858D0041C4123C35C9F
:101B4000002B04D100224033C254FFF753FA242261
:101B50004123E2542268136801218B4313602268F9
:101B6000234B61680B40136122689168214B0B4045
:101B70009360E368012B06D1226880231B02A168D1
:101B80000B43936005E0226884231B02A1680B438A
:101B90009360E368022B03D12368802212015A600C
:101BA0002268536814490B4353602268D168114B73
:101BB0000B40D3602168226963691A43A3691B0241
:101BC0001343CB602268E369216A0B4313602268E8
:101BD000116801230B431360002363642021412219
:101BE000A15423630132A354002000E0012010BD62
:101BF000FFFFFFF0FF7FFFFF00800002F0B587B01E
:101C0000071C0C1C039204930CAB40CB1D88412392
:101C1000C35C202B00D0C1E0002E00D1C0E0002D1D
:101C200000D1BFE02033C35C012B00D1BCE0012216
:101C30004023C25400F02CFE05900090381C8021F7
:101C4000090201221923FFF7E5FE002800D0ADE0CC
:101C500021224123FA541F320133FA5400237B64BA
:101C60007E627D857B630E9B0093059B0193381CF0
:101C7000211C039A049BFFF7F1FE00280CD07B6C1B
:101C8000042B04D100223C33FA54012095E00022B9
:101C90004023FA54032090E07B8D9BB2FF2B0BD99D
:101CA000FF233B8500230093381C211CFF22802347
:101CB0005B04FFF733FE0BE07A8D92B23A85D2B225
:101CC00000230093381C211C80239B04FFF726FE71
:101CD000381C0E99059AFFF773FE002804D07B6C20
:101CE000042B65D1012068E03A687B6A591C79624F
:101CF0001B7893627B8D013B9BB27B853B8D013BC7
:101D00009BB23B85002B29D17B8D9BB2002B25D02C
:101D1000059B0093381C802100220E9BFFF77AFE62
:101D2000002847D17B8D9BB2FF2B0BD9FF233B852E
:101D300000230093381C211CFF2280235B04FFF743
:101D4000EDFD0BE07A8D92B23A85D2B2002300937A
:101D5000381C211C80239B04FFF7E0FD7B8D9BB288
:101D6000002BB5D1381C0E99059AFFF7BBFE002851
:101D700004D07B6C042B1FD101201EE03B68202285
:101D8000DA6139684C680E4B23404B604123FA54AA
:101D900000232232BB54023ABB540EE002200CE076
:101DA00001200AE0012008E0022006E0032004E010
:101DB000032002E0032000E0032007B0F0BDC0468E
:101DC00000E800FEF0B54123C35C202B20D1203376
:101DD000C35C012B1ED0402401230355412524223E
:101DE0004255066832689A433260066837680A4A84
:101DF0003A40326002681668314311600268116827
:101E00000B4313602023435500230355002002E0B9
:101E1000022000E00220F0BDFFEFFFFFF0B54123FC
:101E2000C35C202B1ED12033C35C012B1CD040246B
:101E300001230355412524224255066832689A43FE
:101E4000326006683768094A3A4009021143316036
:101E5000026811680B431360202343550023035588
:101E6000002002E0022000E00220F0BDFFF0FFFFB2
:101E700038B500283CD0041C5123C35C002B04D18E
:101E800000225033C254FFF7FFF85121022363545C
:101E90002268136840208343136020686368A26847
:101EA0001343E26813432269134362691343802298
:101EB0009200A5692A401343E2691343226A13433F
:101EC000A26A134303602268638B04200340606AA4
:101ED000034353602368E26A1A612268D069054BA4
:101EE0000340D3610023636501336354002000E0A5
:101EF000012038BDFFF7FFFF03688022D205904222
:101F000007D0194A904206D0184A904205D10122C2
:101F100004E0012202E0012200E00022002A03D0B6
:101F2000702293434A6813438022D205904207D01F
:101F30000D4A904206D00D4A904205D1012204E09C
:101F4000012202E0012200E00022002A03D0084A18
:101F50001340CA68134303608B68C3620B688362D3
:101F6000012343617047C04600080140001401404E
:101F7000FFFCFFFF30B5046A036A0125AB4303622F
:101F80008369EF35AB4312011A430A239C43214373
:101F90008261016230BDC04630B5036A1024A3439C
:101FA00003628569036A054C2C4012032243A02476
:101FB000A343090119438261016230BDFF0FFFFF96
:101FC000836870229343693A1143194381607047D3
:101FD00030B58568034C2C401B021A431143214342
:101FE000816030BDFF00FFFF38B5002814D0041C0D
:101FF0003523C35C002B04D100223433C254FFF7D5
:1020000039F9352502236355211C01C9FFF774FFF7
:1020100001236355002000E0012038BD10B53522B2
:10202000022383540468236801210B4323608154F5
:10203000002010BD10B53422825C012A00D184E05A
:102040000B1C041C012134228154013101328154C2
:10205000016888683E4A02408A601A68402A4FD068
:102060000AD8102A5BD002D8002A53D065E0202A73
:102070005AD0302A5DD060E0702A14D004D8502A9B
:102080002AD0602A32D058E0802149018A4204D007
:10209000802189018A4212D04FE02268936807218B
:1020A0008B43936049E099685A68DB682068FFF7C2
:1020B0008FFF2268916877230B4393603DE0996816
:1020C0005A68DB682068FFF783FF226893688021E5
:1020D000C9010B43936030E05968DA682068FFF764
:1020E00049FF20685021FFF76BFF26E05968DA6846
:1020F0002068FFF751FF20686021FFF761FF1CE0B7
:102100005968DA682068FFF735FF20684021FFF73B
:1021100057FF12E020680021FFF752FF0DE0206812
:102120001021FFF74DFF08E020682021FFF748FF4E
:1021300003E020683021FFF743FF01223523E254FA
:102140000022013BE254002000E0022010BDC04606
:102150008800FFFF7047C0467047C0467047C046C2
:102160007047C04610B5041C03681A69920715D55C
:10217000DA68920712D5032252421A6101230375CD
:1021800003689B699B0702D0FFF7E6FF04E0FFF7B7
:10219000E1FF201CFFF7E2FF0023237523681A6983
:1021A000520719D5DA68520716D5052252421A612C
:1021B0000223237523689A69C0239B001A4203D027
:1021C000201CFFF7C9FF05E0201CFFF7C3FF201C00
:1021D000FFF7C4FF0023237523681A69120717D578
:1021E000DA68120714D5092252421A6104232375B2
:1021F0002368DB699B0703D0201CFFF7ADFF05E0D8
:10220000201CFFF7A7FF201CFFF7A8FF0023237562
:1022100023681A69D20619D5DA68D20616D51122B2
:1022200052421A61082323752368DA69C0239B0090
:102230001A4203D0201CFFF78FFF05E0201CFFF798
:1022400089FF201CFFF78AFF0023237523681A6982
:10225000D20708D5DA68D20705D5022252421A61A0
:10226000201CFFF797F923681A69520608D5DA6827
:10227000520605D5412252421A61201CFFF770FF19
:1022800010BDC046F0B53423C35C012B1ED03422F0
:102290000125855435240223035506687368702789
:1022A000BB437360066873680F683B4373600668DE
:1022B000B3688027BB43B3600668B7684B683B438D
:1022C000B360055500238354002000E00220F0BDD8
:1022D000F8B5051C83680269134342691343C26958
:1022E0001A4301680868BA4B034013430B602A681D
:1022F0005168B84B0B40E9680B435360AB692A68DF
:10230000B5498A4201D0296A0B439068B34901401C
:102310000B4393602B68B24A934214D1B14BDB6CF0
:1023200003221340012B08D0002B04D0022B45D0F0
:10233000032B04D005E0012447E0042445E00824F1
:1023400043E0102441E0A84A934216D1A54BDB6C30
:102350000C221340042B0AD002D8002B05D00AE02F
:10236000082B2DD00C2B04D005E000242DE00424F4
:102370002BE0082429E0102427E0974A934221D13A
:10238000984BDA6CC0231B0113408022D200934289
:102390000ED002D8002B09D00EE080221201934209
:1023A00012D0C0221201934204D005E000240CE0B8
:1023B00004240AE0082408E0102406E0022404E0D3
:1023C000022402E0102400E00224022000F070FF4A
:1023D0002E68814B9E4240D1022C0FD002D8002C97
:1023E00008D016E0042C10D0082C12D10024802034
:1023F000000213E000F062FE00240FE0794B1B683E
:10240000DB0609D50024794808E000F031FD0024FE
:1024100004E00124002001E000247548002800D1D8
:10242000D3E06A6853009B18834200D9C6E01303C7
:10243000834200D2C4E0070E060250080021801932
:1024400079410023FEF718F86A4BC2186A4B9A428A
:1024500000D9B7E02B68D860B7E080231B02EA6997
:102460009A4258D1082C4BD8A400644B1B599F4664
:1024700040006B685B08C0186968FDF77BFE80B29E
:1024800000243FE000F02AFE40006B685B08C018A3
:102490006968FDF76FFE80B2002433E0514B1B6882
:1024A000DB060AD56B685808554B9C466044696842
:1024B000FDF760FE80B2002424E06B685808514BA1
:1024C0009C4660446968FDF755FE80B2002419E01F
:1024D00000F0CEFC40006B685B08C0186968FDF72F
:1024E00049FE80B200240DE06B68580880235B022F
:1024F0009C4660446968FDF73DFE80B2002401E01F
:10250000012400200F23021C9A430007400F1043B0
:102510002B68D86059E0082C56D8A4003A4B1B59B8
:102520009F4600F0CBFD69684B08C018FDF722FEFE
:102530000004000CF060002447E000F0CFFD696863
:102540004B08C018FDF716FE0004000CF0600024D4
:102550003BE0244B1B68DB060BD569684808234B1E
:102560009C466044FDF706FE0004000CF060002469
:102570002BE0696848081E4B9C466044FDF7FAFD55
:102580000004000CF06000241FE000F071FC69689A
:102590004B08C018FDF7EEFD0004000CF0600024AD
:1025A00013E06968480880231B029C466044FDF7DD
:1025B000E1FD0004000CF060002406E0012404E0CA
:1025C000012402E0012400E00124201CF8BDC046E3
:1025D000F369FFEFFFCFFFFF00480040FFF4FFFF6C
:1025E00000380140001002400044004000093D0056
:1025F0000024F40000FDFFFFFFFC0F00C45700089B
:1026000000127A000048E801E8570008436ADB0737
:1026100006D5026851682C4B0B40816A0B4353600E
:10262000436A9B0706D502685168284B0B40C16A74
:102630000B435360436A5B0706D502685168244B1D
:102640000B40016B0B435360436A1B0706D50268BE
:102650005168204B0B40416B0B435360436ADB06D0
:1026600006D5026891681C4B0B40816B0B4393604D
:10267000436A9B0606D502689168184B0B40C16BF4
:102680000B439360436A5B0612D502685168144B92
:102690000B40016C0B43536080235B03026C9A4236
:1026A00006D1026851680F4B0B40416C0B435360DD
:1026B000436A1B0606D501684A680B4B1340826CBF
:1026C00013434B607047C046FFFFFDFFFFFFFEFF57
:1026D000FFFFFBFFFF7FFFFFFFEFFFFFFFDFFFFFBE
:1026E000FFFFEFFFFFFF9FFFFFFFF7FFF0B547463C
:1026F00080B4061C0C1C171C9846069D1DE06B1C24
:102700001BD0002D05D000F0C3F84346C01AA842E4
:1027100013D9326811680F4B0B401360326893680D
:1027200001218B43936020236922B3540132B354B7
:1027300000224833F254032008E03368DB69234069
:102740001B1B5A425341BB42D9D0002004BC9046C7
:10275000F0BDC0465FFEFFFF30B583B0041C002310
:10276000C36600F095F8051C23681B681B070AD593
:10277000144B0093201C8021890300222B1CFFF79F
:10278000B5FF002818D123681B685B070AD50D4BDD
:102790000093201C8021C90300222B1CFFF7A6FFF9
:1027A00000280BD120236922A3540132A354002214
:1027B0004833E254002002E0032000E0032003B08D
:1027C00030BDC046FFFFFF0110B500282FD0041C0C
:1027D0006923C35C002B04D100226833C254FEF786
:1027E000B1FD24226923E2542268136801218B433E
:1027F0001360636A002B02D0201CFFF707FF201C28
:10280000FFF766FD012813D022685168094B0B4081
:102810005360226893682A218B4393602268116871
:1028200001230B431360201CFFF796FF00E00120FB
:1028300010BDC046FFB7FFFF10B5041C074B18685A
:10284000FA218900FDF796FC00F030FF012040429C
:10285000211C002200F0EEFE002010BD1C00002014
:1028600008B5064A116840230B4313600020FFF7A8
:10287000E3FFFEF7BDFE002008BDC0460020024079
:10288000024A1368013313607047C046840C00206D
:10289000014B18687047C046840C002010B582B008
:1028A0000190FFF7F5FF041CFFF7F2FF001B019BEF
:1028B0009842F9D302B010BD10B51D4BDB68F02271
:1028C0001A4222D11A4B9B6BDB0005D5194B1A68B3
:1028D000C0235B0113400EE0154A936B802149052C
:1028E0000B439363134B1968C0235B010B40946B3C
:1028F000114921409163C0225201934207D1C02364
:102900001B02984205D0002004E0002002E00020D5
:1029100000E00120094A136801218B43034313603F
:1029200013680B40834201D0012000E0002010BD5D
:102930000010024000700040FFFFFFEF0020024047
:1029400070B582B0041C0368DB0761D5C84BDB6837
:102950000C221340082B08D0C54BDB6813400C2B0E
:102960000BD1C34BDB68DB0307D5C14B1B689B0353
:102970004ED56368002B4BD13FE263688022520240
:10298000934206D1BA4A1368802149020B4313606F
:102990001EE0A022D20293420BD1B54B1A688021CF
:1029A000C9020A431A601A68802149020A431A6060
:1029B0000EE0AF4B1968AF4A0A401A6019688022CE
:1029C00052020A400192019A1968AB4A0A401A6001
:1029D0006368002B0ED0FFF75BFF051C05E0FFF7D7
:1029E00057FF401B642800D909E2A14B1B689B03D9
:1029F000F5D50DE0FFF74CFF051C05E0FFF748FF9C
:102A0000401B642800D9FCE1994B1B689B03F5D45B
:102A100023689B0752D5964BDB680C221340042B8E
:102A200008D0934BDB6813400C2B14D1904BDB6820
:102A3000DB0310D48E4B1B685B0703D5E368012BC7
:102A400000D0E0E18A494A688C4B134022691202A7
:102A500013434B6032E0E268002A1CD084490B68C3
:102A60000920834313430B60FFF712FF051C05E0A9
:102A7000FFF70EFF401B022800D9C6E17C4B1B6804
:102A80005B07F5D57A494A687C4B134022691202EC
:102A900013434B6012E0764A136801218B431360A5
:102AA000FFF7F6FE051C05E0FFF7F2FE401B0228CB
:102AB00000D9ACE16E4B1B685B07F5D42368DB06DD
:102AC00000D488E06A4BDB680C221A424AD1684B7A
:102AD0001B689B0503D5A369002B00D199E1206AEF
:102AE000634B5A68E0231B021340984213D9FFF747
:102AF000E3FE002800D08EE15D494A68604B134038
:102B0000226A13434B604B681B021B0AE2691206E0
:102B100013434B6012E056494A68594B134018431F
:102B200048604B681B021B0AE269120613434B60A4
:102B3000206AFFF7C1FE002800D06EE1236A5B0B1C
:102B40000133802212029A40131C494AD2681206AD
:102B5000120F4C498A5CD3404B4A13600020FFF7A8
:102B60006BFE38E0A369002B22D0414A1368802114
:102B700049000B431360FFF78BFE051C05E0FFF7D0
:102B800087FE401B022800D949E1394B1B689B0591
:102B9000F5D537494A683A4B1340226A13434B60D4
:102BA0004B681B021B0AE269120613434B6012E0DA
:102BB0002F4A1168354B0B401360FFF769FE051C67
:102BC00005E0FFF765FE401B022800D929E1284BEC
:102BD0001B689B05F5D423681B0729D56369002B67
:102BE00013D0234A116D01230B431365FFF750FEE9
:102BF000051C05E0FFF74CFE401B022800D912E13E
:102C00001B4B1B6D9B07F5D512E0194A136D012173
:102C10008B431365FFF73CFE051C05E0FFF738FE0C
:102C2000401B022800D900E1114B1B6D9B07F5D416
:102C300023685B0700D490E00D4B9B6BDB0007D44F
:102C40000B4A936B802149050B439363012500E0F8
:102C500000250F4B1B68DB0526D40D4A1368802125
:102C600049000B431360FFF713FE061C18E0C04633
:102C700000100240FFFFFEFFFFFFFBFFFFE0FFFF32
:102C8000FF1FFFFF905800081C000020FFFEFFFF01
:102C900000700040FFF7FCFD801B642800D9C6E0EF
:102CA0006B4B1B68DB05F5D5A3688022520093426D
:102CB00006D1684A136D802149000B43136524E057
:102CC000002B09D1634B196D634A0A401A65196DCF
:102CD000624A0A401A6518E0A022D20093420BD142
:102CE0005C4B1A6D8021C9000A431A651A6D802158
:102CF00049000A431A6508E0564B196D564A0A40C6
:102D00001A65196D554A0A401A65A368002B0FD041
:102D1000FFF7BEFD061C06E0FFF7BAFD801B504B17
:102D2000984200D985E04B4B1B6D9B05F4D50DE017
:102D3000FFF7AEFD061C05E0FFF7AAFD801B484B20
:102D4000984278D8434B1B6D9B05F5D4012D04D1D7
:102D5000404A916B434B0B409363636A002B6CD0EA
:102D60003C4AD2680C210A400C2A68D0022B30D190
:102D7000384A11683C4B0B401360FFF789FD051C76
:102D800004E0FFF785FD401B02285AD8314B1B6831
:102D90009B01F6D42F49C868344B1840A36AE26AF5
:102DA0001343226B13430343CB600B68802252040E
:102DB00013430B60FFF76CFD041C04E0FFF768FD94
:102DC000001B02283FD8234B1B689B01F6D500202F
:102DD0003CE0204A1168244B0B401360FFF758FD7C
:102DE000041C04E0FFF754FD001B02282DD8194BEA
:102DF0001B689B01F6D4002028E0012026E0032078
:102E000024E0032022E0012020E003201EE0032034
:102E10001CE001201AE0012018E0012016E0032048
:102E200014E0032012E0032010E003200EE0032052
:102E30000CE003200AE0032008E0002006E0012067
:102E400004E0032002E0032000E0032002B070BD94
:102E50000070004000100240FFFEFFFFFFFBFFFF7D
:102E600088130000FFFFFFEFFFFFFFFEFFFF02FFE1
:102E700008B51E4BD9680C230B40082B31D00C2B06
:102E800007D0042B23D1194B1B68DB062BD5184820
:102E90002AE08B021B0F174AD05C0902890F01310F
:102EA000124BDB68DB0304D5134B5843FDF762F983
:102EB0001AE00E4B1B68DB0604D50D4B5843FDF79B
:102EC00059F911E00D4B5843FDF754F90CE0074B4D
:102ED00058680004400F013080231B028340181CF7
:102EE00002E0054800E0054808BDC0460010024069
:102EF00000093D00A858000800127A000024F400E0
:102F000070B5644B1B68012213408B420AD2614AA0
:102F100013680124A3430B431360136823408B42BF
:102F200000D0A3E003689B0706D55B4AD368F02472
:102F3000A34384682343D3600D1C041C0368DB0790
:102F40005FD54368022B04D1534A1268920313D40D
:102F50008EE0032B04D1504A126892010CD489E010
:102F6000012B04D14C4A1268520705D484E04A4A26
:102F70001268920500D481E04749CA680320824361
:102F80001343CB60FFF784FC061C6368022B0DD152
:102F900005E0FFF77DFC801B404B984270D83E4B0C
:102FA000DB680C221340082BF3D12AE0032B0DD150
:102FB00005E0FFF76DFC801B384B984262D8364B1A
:102FC000DB680C2213400C2BF3D11AE0012B13D138
:102FD00005E0FFF75DFC801B304B984254D82E4B28
:102FE000DB680C221340042BF3D10AE0FFF750FCFE
:102FF000801B2A4B984249D8274BDB680C221A4287
:10300000F4D1244B1B6801221340AB4209D9214A59
:10301000136801218B432B43136013680B40AB42B1
:1030200036D123685B0706D51B4AD1681C4B0B4081
:10303000E1680B43D36023681B0707D51649CA68AC
:10304000184B13402269D2001343CB60FFF710FFE7
:10305000114BDB681B061B0F134AD35CD840134B84
:1030600018600020FFF7E8FB002012E0012010E0CC
:1030700001200EE001200CE001200AE0012008E020
:10308000032006E0032004E0032002E0032000E028
:10309000012070BD00200240001002408813000093
:1030A000FFF8FFFFFFC7FFFF905800081C0000203B
:1030B000014B18687047C0461C00002008B5FFF798
:1030C000F7FF044BDB685B055B0F034AD35CD8401A
:1030D00008BDC04600100240A058000808B5FFF720
:1030E000E7FF044BDB689B045B0F034AD35CD840CB
:1030F00008BDC04600100240A058000870B5041C6E
:1031000003689B0600D482E05F4B9B6BDB0007D417
:103110005D4A936B802149050B439363012500E0D1
:1031200000255A4B1B68DB0513D4584A13688021CD
:1031300049000B431360FFF7ABFB061C05E0FFF7EC
:10314000A7FB801B642800D995E0504B1B68DB056A
:10315000F5D54D4B1A68C0239B031A4061680B409C
:1031600093420AD0C0239B020A1C1A409A4204D1FF
:10317000454B1B689B0300D57FE0434B1A6DC02372
:103180009B02134025D0C02292021140994220D0C8
:1031900023689B061DD53C4B186D3D4A0240196DB6
:1031A00080263603314319651E6D3A493140196551
:1031B0001A65C3050DD5FFF76BFB061C05E0FFF78D
:1031C00067FB801B344B984259D82F4B1B6D9B05D6
:1031D000F5D56268C0239B02111C1940994208D1A1
:1031E000294801682D4B1940C0239B031A400A430C
:1031F0000260254A116DC0239B02606803400B43A7
:103200001365012D03D1916B254B0B40936323680C
:10321000DB0706D51C4AD36C03218B43A1680B4303
:10322000D36423689B0706D5174AD36C0C218B43C4
:10323000E1680B43D36423685B0706D5124AD16C5F
:10324000184B0B4021690B43D36423681B0706D539
:103250000D4AD16C144B0B4061690B43D364236856
:103260001B060ED50849CA6C104B1340A2691343C4
:10327000CB64002006E0032004E0012002E00320EC
:1032800000E0002070BDC046001002400070004009
:10329000FFFFFCFFFFFFF7FF88130000FFFFCFFFDA
:1032A000FFFFFFEFFFF3FFFFFFCFFFFFFFFFF3FF86
:1032B00008B5202800D9B1E080006C4B1B589F4610
:1032C0006B4B196D1A6DC0239B0213408022520272
:1032D000934202D18A0500D5A2E080229202934255
:1032E00002D18A0700D59EE0C0229202934200D00C
:1032F0009BE05F4B1B689B0300D498E05C4B1A6813
:10330000C0239B03134080229203934200D190E09C
:10331000C0229203934204D080225203934204D1EC
:1033200001E05448A1E054489FE054489DE0504BD0
:10333000DB6C0322134002D1FFF7D0FE95E0022B95
:1033400003D14B4A1268520775D4012B02D1FFF703
:103350008FFD8AE0032B70D1454B1B6D9B056ED40E
:10336000002082E0424BDB6C0C22134002D1FFF7BD
:10337000A5FE7AE0082B03D13D4A1268520761D4BA
:10338000042B02D1FFF774FD6FE00C2B5CD1384B9E
:103390001B6D9B055AD4002067E0354BDA6CC023C7
:1033A0001B01134002D1FFF789FE5EE0802212016B
:1033B000934203D12E4A126852074AD48022D20087
:1033C000934202D1FFF754FD4FE0C0221201934215
:1033D00041D1274B1B6D9B053FD4002045E0244B7A
:1033E000DA6CC0239B01134002D1FFF767FE3CE07B
:1033F00080229201934203D11D4A126852072FD4B2
:103400008022520193422DD1FFF732FD2DE0184B5F
:103410009B6B5B0228D5FFF751FE26E0002024E0DD
:103420008020000221E016481FE000201DE000205F
:103430001BE0144819E0144817E0002015E0802034
:10344000000212E0104810E000200EE08020000290
:103450000BE00D4809E0002007E08020000204E0B6
:10346000094802E0002000E0002008BD0C580008D8
:103470000010024020A1070080841E0000093D00CA
:103480008890000040420F000024F400F0B54F4641
:103490004646C0B483B00023ADE001249C402240E6
:1034A000914600D1A6E04D68022D01D0122D0ED11B
:1034B000DD080835AE00375807251D40AD000F2246
:1034C000AA4097430A69AA40151C3D4335504D68F0
:1034D0006F1E012F03D9112D01D0122D13D1856834
:1034E0005E000327B740BD432F1CCD68B5403D4368
:1034F00085604768A7434A68D506ED0F2C1C019AE2
:1035000094403C43446005685F000324A446BC40EB
:10351000E44325402E1C65464A681540BD403543AE
:103520000560C5682C408D68BD402C43C4604A6866
:10353000D2005FD5354D6E6B012434436C639C081B
:10354000A51CAD00324EAE5903271F40BD000F270A
:10355000AF40BE43A027FF05B84215D02D4FB8425B
:1035600010D02D4FB8420BD02C4FB84206D02C4F64
:10357000B84201D1052708E0062706E0032704E04A
:10358000022702E0012700E00027AF403D1C354341
:103590000234A4001E4EA551224C25684A46D4434D
:1035A0002E1C26404A68D20302D54A4615432E1CDB
:1035B0001C4D2E606D682E1C26404A68920302D571
:1035C0004A4615432E1C174D6E60AD682E1C2640D2
:1035D0004A68D20202D54A4615432E1C114DAE60F0
:1035E000ED682C404A68920202D54A462A43141CD0
:1035F0000C4AD46001330A680193141CDC4000D0EB
:103600004BE703B00CBC90469946F0BD0010024059
:10361000000001400004005000080050000C005061
:10362000001C005000040140002A01D0816100E02C
:103630008162704770B5002816DAC0B20F230340CC
:10364000083B9B089B00124A944663445A68032433
:103650002040C000FC34251C8540AA43890121403C
:1036600081400A435A6011E083080A4CC0339B0032
:103670001A5903252840C000FC352E1C8640B24351
:10368000890129408140081C1043185170BDC04673
:1036900018ED00E000E100E01F2318401E3B8340CE
:1036A000181C014B1860704700E100E001380A4B1C
:1036B00098420FD8094A506009490B6A1B021B0A3D
:1036C000C020000603430B6200239360073313609E
:1036D000002000E001207047FFFFFF0010E000E045
:1036E00000ED00E0042805D1054A116804230B43CE
:1036F000136004E0024A136804218B43136070478F
:1037000010E000E07047C04608B5FFF7FBFF08BDBA
:10371000104B1A68802149000A431A60D9680E4A82
:103720000A40DA6019680D4A0A401A609A68012155
:103730008A439A6019680A4A0A401A60D968094A95
:103740000A40DA6000221A6180221205064B9A6054
:103750007047C046001002400C40FF88F6FFF6FE9E
:10376000FFFFFBFFFFFF02FF00ED00E00D48854675
:10377000002103E00C4B5B58435004310B480C4BC9
:1037800042189A42F6D30B4A02E000231360043237
:10379000094B9A42F9D3FFF7BBFF00F011F8FDF790
:1037A00017F9FEE700200020445A0008000000201E
:1037B00088000020880000208C0C0020FEE700001C
:1037C0000E4B70B500251E1C0D4CE41AA410A5422A
:1037D00004D0AB00F35898470135F8E700F0FEFD40
:1037E000084B00251E1C084CE41AA410A54204D066
:1037F000AB00F35898470135F8E770BD3C5A000814
:103800003C5A00083C5A0008405A0008002310B5F2
:10381000934203D0CC5CC4540133F9E710BD0000DF
:103820000EB4812370B59DB002AC21AD9B0040CD9C
:10383000A3810290069000F01DF80B4B606063625C
:1038400000236363A364013BE381084B6061211C97
:103850001868321C2B1C019500F070F81DB070BC6C
:1038600008BC03B01847C04671380008800000202B
:10387000002070470023C25C0133002AFBD1581E90
:10388000704738B5141C4B1C02D10120404234E073
:10389000938920229343626BA381CDB26368002A8F
:1038A0000FD0A26B934206DA2368013B23601D70A0
:1038B000636801331FE0211C00F056FC0028F3D0A0
:1038C000E3E721692268002909D08A4207D9511EFD
:1038D0000878A84203D10133216063600DE02364BE
:1038E000231C443363630323A363231C4633E26333
:1038F0001D7023600123281C636038BD10B50C1CAB
:10390000496B00290ED0231C4433994201D000F0AA
:1039100075FC0020236C60636360834202D0E36B1C
:10392000236009E0236920222360002301206360D3
:10393000A38940421343A38110BD0000F0B5B54CEC
:10394000071CA5440393002386204893499305ABA5
:103950004A93BE2340000D1C019202A9AE4A5B00AF
:103960000918CA50AD4A02A904330918CA50019B6C
:103970001C78002C00D144E1A94E33681B195A78F9
:103980000823134023D06B68002B10DD2B683168AF
:103990001A788A185278120715D5499A013302927B
:1039A000013249926A682B60013A6A60EBE786212E
:1039B000C023490002AA52185B00D358381C291CA6
:1039C00098470028E2D0019E01360196CFE7019A80
:1039D000561C252C4FD14793459353782A2B02D15F
:1039E0001A3B45930136341C21780B1C303B092BC4
:1039F00009D8479B013401930A23019A5343303B72
:103A000059184791F0E7874E0322301C00F0EAFB7B
:103A1000002808D0801B01268640301C459B0134BD
:103A2000184301934590661C2478672C10D8652CA8
:103A300000D384E05B2C5AD005D8002C00D1E2E002
:103A4000252C18D07DE0632C5FD0642C46D078E024
:103A5000702C34D007D86E2C5FD041D8692C70D12F
:103A60000023469341E0752C38D0782C2DD0732C50
:103A700067D1022347E06B68002B0EDD2B681A78B4
:103A8000A24200D0BDE001336A682B60499B013A35
:103A9000019301336A60499397E78621C023490067
:103AA00002AA52185B00D358381C291C98470028DA
:103AB000E4D04898002800D09FE00138A5E0459B5D
:103AC00001932023019A13434593459B019380233F
:103AD000019A9B0013434593102302E00A2300E060
:103AE0000823469304236E2C0DDC03230BE0311CCA
:103AF00005A800F0F3F9459B061C01934023019AA9
:103B00001343459301234B931FE0459B01934023AF
:103B1000019A134345930023F5E74599CB0600D559
:103B200053E7039B499AC80704D5191D03911B68E5
:103B30001A804AE7191D03911B681A6045E705239F
:103B4000E1E703234B93073346936B68002B04DDB7
:103B5000459B01935B0618D51FE08621C0234900D1
:103B600002AA52185B00D358381C291C9847002819
:103B7000EED09EE7499A0192013249926A68013A71
:103B80006A60002A13DD01332B602B6824491A7800
:103B900009688A1852781207ECD44B9B022B13DC6D
:103BA000381C45A92A1C03AB00F040F81FE0862111
:103BB000C023490002AA52185B00D358381C291CA4
:103BC00098470028E1D074E7042B06DC381C45A98F
:103BD0002A1C03AB00F088F809E0134B002B00D13E
:103BE000F3E6381C45A92A1C03AB00E000BF0128FE
:103BF00007D0022800D0E8E65BE7AB895B0604D576
:103C000001E0489801E001204042A7239B009D4429
:103C1000F0BDC04664FDFFFF83380008FD38000892
:103C200084000020B358000800000000F7B5151C00
:103C30008A6801900C1C002A06D18A69511E8A41AB
:103C4000012152420A43A2602268D20603D41A68B4
:103C5000111D196017680026A06900281DD123686E
:103C60000136DB0603D42B681B783B7001372A68CA
:103C70006B6801322A60A268013B013A6B60A26066
:103C8000002A1FD0002BE7DCC0235B00E35801981B
:103C9000291C98470028DFD014E0012808D12B68A0
:103CA00062691B78D35C002BD9D1002E19D009E0B2
:103CB000022807D12B680B4A1B781268D3185B784F
:103CC0001B07CCD510232268134006D1E2680132CD
:103CD000E260A269002A00D03B70002023699E198F
:103CE0002661FEBD84000020F0B50C1C8BB0019352
:103CF000744B0490161C07AA23CB23C2724B059366
:103D0000A369032B01D0714B05930022A368039292
:103D10005D32591EFF32914205D95E3BFF3B039352
:103D20005E23FF33A360231C1C330093D0230027A2
:103D300022681B0113432360009B02933268BB007F
:103D4000117807AA9858022200F04CFA002839D0BE
:103D5000012F0DD16368002B06D108332268636000
:103D6000F933FF3313432360594B226813400DE0AE
:103D7000022F0CD1C02280212368D2001A40890072
:103D80008A4222D110226260F03213432360A3687A
:103D90005A1EA260002B15D0029B5D1C33685A1C72
:103DA00032601B78029A029513707368013B73604E
:103DB000002B07DCC0235B00E3580498311C9847B4
:103DC000002844D10137032FB8D16368002B01D1FB
:103DD0000A3363601021002763686069C91A3D4B8C
:103DE000C91800F07BF8029DA368002B30D0326820
:103DF00060691178405C00282AD030290BD12168F5
:103E0000090508D5039A0137002A0BD0013A01337E
:103E10000392A36006E021682F4B0B4023601378C8
:103E20002B7001357368013B7360002B03DD336831
:103E30000133336007E0C0235B00E3580498311C72
:103E40009847002804D1A368013BA360CCE7002772
:103E50002368DB050ED5009B9D4207D9BE23013D9B
:103E60005B002978E3580498321C9847009B012096
:103E70009D4225D0102223681A401AD12A70636807
:103E800004980099059EB047019B22681B68910623
:103E900007D4D10705D501991A1D0A601B6818803F
:103EA00004E001991A1D0A601B681860E368013379
:103EB000E3600020009BED1A2369ED195D1925616F
:103EC0000BB0F0BDF4430008453F00086540000812
:103ED000FFFAFFFFB7580008FFF6FFFFF0B50A78BA
:103EE0005E2A02D04B1C002402E001244A788B1C7D
:103EF000011C451CFF350C700131A942FBD1002A81
:103F000001D1581E1CE001210C1BE7B2875419781F
:103F10005E1C2D2906D05D290FD000290FD00A1C68
:103F2000331CF2E75D785D2DF9D09542F7DB023363
:103F300001328754AA42FBDBE9E7301C00E0181C81
:103F4000F0BD0000F0B51E1C444B87B01B68059007
:103F500002930B1C039101921C78029A5D1C1219AA
:103F600050780822104001D02B1CF5E72D2C04D1ED
:103F70009D1C5C780123009304E000902B2C01D160
:103F80005C789D1C002E02D0102E0AD160E0302CEF
:103F90005CD120222B789343582B52D110266C7879
:103FA0000235009F311C7B1E9F412D4BFF18381C92
:103FB000FCF766F9381C0491311CFCF7DBF8002291
:103FC000071C131C029909194978480701D5303C90
:103FD00007E00320084017D03721012800D0203106
:103FE000641AB44210DA511C0BD0BB4207D802D17C
:103FF000049A944203DC73430122E31801E0012296
:1040000052422C780135DDE7181C511C0BD1009869
:10401000059A431E9841124BC01822231360019B3E
:10402000002B0AD117E00099002900D05842019BCB
:10403000002B10D0039B002A00D06B1E019A136046
:1040400009E03024002EACD10826AAE70A26A8E70A
:10405000302CA6D19DE707B0F0BDC04684000020FB
:10406000FFFFFF7FF0B51E1C3E4B87B01B68171C7F
:1040700002930B1C059004911C78029A5D1C121986
:10408000517808220A4001D02B1CF5E72D2C04D1D1
:104090009D1C5C780123019304E001922B2C01D13B
:1040A0005C789D1C002E02D0102E0AD154E0302CDA
:1040B00050D120222B789343582B46D110266C7870
:1040C00002350120311C4042FCF754F803900120D6
:1040D000311C4042FCF7D4F800228C46131C029994
:1040E00009194978480701D5303C07E0032008400A
:1040F00017D03721012800D02031641AB44210DAD9
:10410000511C0BD0039A934206D801D1644503DCBD
:1041100073430122E31801E0012252422C78013559
:10412000DDE7181C511C04D122230599101C0B60DB
:1041300003E00199002900D05842002F0FD0049BC2
:10414000002A00D06B1E3B6009E03024002EB8D15D
:104150000826B6E70A26B4E7302CB2D1A9E707B0A3
:10416000F0BDC046840000200B1CF7B54D6B4433F6
:104170000C1C9D421BD18026F600311C00F084F8F7
:10418000002802D10120404225E0231C6063A66381
:1041900046331A78104BC254231C45331A780F4B00
:1041A000C2542A780E4BC254C018206012E08E6BA5
:1041B000291C73001A1C019300F0BEF8051EE1D003
:1041C0008719381C291C321CFFF720FB019B276034
:1041D0006563A3630020FEBDFF030000FE03000033
:1041E000FD030000C9B28218904204D003788B42CC
:1041F00002D00130F8E700207047000030B50029F8
:104200003ED004390B68002B00DAC9181D4A136828
:10421000141C002B02D14B60116031E099420DD289
:1042200008680A189A4203D11368C3180B605368D0
:104230004B60216024E08A4203D8131C5A68002A8C
:10424000F9D11D685C198C420BD10968691858189E
:104250001960904214D110685268091819605A60A8
:104260000EE08C4202D90C23036009E008680C18A8
:10427000944203D114685268001908604A6059607A
:1042800030BDC046E4080020032370B5CC1C9C431D
:104290000834051C0C2C01D20C2405E0002C03DA98
:1042A0000C2300202B6042E08C42F9D3204A136893
:1042B000101C191C002913D00A68121B0DD40B2ADC
:1042C00002D90A608B181FE08B4202D15A68026043
:1042D0001BE04A685A600B1C17E00B1C4968E9E7B1
:1042E000144E3368002B03D1281C00F04BF83060CB
:1042F000281C211C00F046F8031C421CD0D00322CD
:10430000C61C964386420AD11C60181C07210B303C
:104310001A1D8843821A0AD05142995007E0311A77
:10432000281C00F02FF8431CBAD0331CECE770BDFA
:10433000E4080020E0080020F8B5061C0C1C151C41
:10434000002904D1111CFFF79FFF041C18E0002A6C
:1043500003D1FFF753FF2C1C12E000F025F8A84210
:104360000ED2301C291CFFF78FFF071E07D0211C1F
:104370002A1CFFF74BFA301C211CFFF73FFF3C1CA7
:10438000201CF8BD38B50023064C051C081C236012
:1043900000F016F8431C03D12368002B00D02B60DB
:1043A00038BDC046880C00200B1F1A68101F002A59
:1043B00004DA891804390B68D018043870470000F3
:1043C000044A1368002B03D018181060181C70479B
:1043D000014BF9E7E8080020900C0020F8B5C04632
:1043E000F8BC08BC9E467047F8B5C046F8BC08BC8F
:0443F0009E4670472E
:1043F400C9580008CC580008CF5800085372632FDE
:104404006D61696E2E63000056414C53000000003C
:104414007400000065253164632532646B253364C0
:104424006C253464642532646E25346470253564E7
:104434006D2533640D0A0000000000000000000038
:104444000000000000000000000000000000000068
:104454000000000000000000000000000000000058
:10446400000000000000000000000000E003E00382
:10447400E003E003E003E003E003E003C003C00360
:10448400C001C001C001C001C00100000000000063
:10449400E003E003E003000000000000000000006F
:1044A4003C1E3C1E3C1E3C1E3C1E3C1E3C1E000092
:1044B40000000000000000000000000000000000F8
:1044C40000000000000000000000000000000000E8
:1044D40000000000CE01CE03DE039E039C039C0774
:1044E400FF3FFF7F3807380F780F780F780EFFFFF4
:1044F400FFFFF01EF01CE01CE03CE03DE039000052
:104504000000000000000000FC03FE0FEE1FE01E90
:10451400E01EE01EE01EE01FE00FE007F003FC01D8
:10452400FE01FE01FE01FE01FE01FE01FE3DFC3F17
:10453400F00FE001E001000000000000033E07F777
:104544008FE78EE79EE3BCE3B8E7F8E7F0F7E03FD8
:10455400C001FF03FF07F307F30FF31EF33CF33827
:10456400F3787FF03FE0000000000000000000004E
:10457400E007F80F780F781F781F781F780FF00F77
:10458400E00F801FC37FC3FBE7F3F7F1F7F0FFF001
:104594007FF03EF87F7CFF3FEF1F0000000000002B
:1045A40000000000E003E003E003E003E003C003D5
:1045B400C001000000000000000000000000000036
:1045C40000000000000000000000000000000000E7
:1045D40000000000000000003F007C00F001E0014A
:1045E400C003C00780078007800F000F000F000F73
:1045F400000F000F000F800F80078007C007C00363
:10460400E001F0017C003F000F000000007E001F6D
:10461400C007C003E001F001F000F000F8007800EA
:1046240078007800780078007800F800F000F00056
:10463400F001E001C003C007001F007E0078000005
:10464400E003C003C001CE39FF3F7F3F2003700366
:10465400F807780F3C1F3806000000000000000037
:104664000000000000000000000000000000000046
:104674000000000000000000000000000000000036
:10468400C001C001C001C001C001C001C001FFFFE1
:10469400FFFFC001C001C001C001C001C001000092
:1046A4000000000000000000000000000000000006
:1046B40000000000000000000000000000000000F6
:1046C40000000000000000000000E003E003E0033D
:1046D400E003E001E001E001C0018003000000000C
:1046E40000000000000000000000000000000000C6
:1046F4000000FE3FFE3F000000000000000000003C
:1047040000000000000000000000000000000000A5
:104714000000000000000000000000000000000095
:104724000000000000000000000000000000000085
:104734000000E003E003E003E003000000000000E9
:10474400000000000F000F001E001E003C003C0093
:1047540078007800F000F000E001E001C003C0033D
:1047640080078007000F000F001E001E003C003C65
:104774000078007800F00000F007F80F7C1F3E3E40
:104784001E3C1F7C1F7C0F780F780F780F780F78F2
:104794000F780F781F7C1F7C1E3C3E3E7C1FF80F59
:1047A400F00700000000000000000000F000F00727
:1047B400F03FF03FF001F001F001F001F001F001F1
:1047C400F001F001F001F001F001F001F001F0015D
:1047D400F001FF3FFF3F0000000000000000000068
:1047E400E00FF83F7C3C3C003E003E003E003C00B5
:1047F4003C007C00F800F001E003C0078007000FD4
:10480400001E003E003CFE3FFE3F00000000000092
:1048140000000000F00FF81F7C1C3E003E003E002C
:104824003C003C00F800F00FF80F7C003E001E0036
:104834001E001E001E003E007C1CF81FE01F00002E
:1048440000000000000000007800F800F800F80103
:10485400F803F807F807780F781E781E783C787804
:104864007878FFFFFFFF7800780078007800780000
:10487400780000000000000000000000FC1FFC1F86
:10488400FC1F001E001E001E001E001EE01FF81F5D
:10489400FC007C003E003E001E003E003E003C004A
:1048A4007C1CF81FE01F0000000000000000000056
:1048B400FC01FE078E0F001F001E003E003C003C62
:1048C400F83DFC3F3E7F1F7E0F3C0F3C0F3C0F3CEE
:1048D4000F3E1F1E3E1FFC0FF003000000000000EF
:1048E40000000000FF3FFF3FFF3F0F001E001E00BF
:1048F4003C0038007800F000F000E001E001C00363
:10490400C0038007800F800F000F001F001F0000EE
:104914000000000000000000F807FC0F3E1F1E1EF0
:104924001E3E1E3E1E1E3C1FF80FF007F80FFC1E15
:104934003E3E1F3C1F7C0F7C0F7C1F3C3E3FFC1FF8
:10494400F00700000000000000000000F007F80F6E
:104954007C1E3E3C1E3C1F7C1F7C1F7C1F7C1F3C1E
:104964003F3EFF1FEF071F001E001E003E003C00DD
:10497400F838F03FE01F00000000000000000000D5
:10498400000000000000000000000000E003E0035D
:10499400E003E0030000000000000000000000004D
:1049A4000000E003E003E003E00300000000000077
:1049B40000000000000000000000000000000000F3
:1049C400E003E003E003E003000000000000000057
:1049D400000000000000E003E003E003E003E00166
:1049E400E001E001C00380030000000000000000BB
:1049F4000000000003000F003F00FC00F003C00FA4
:104A0400003F00FE003FC00FF003FC003F000F001A
:104A1400030000000000000000000000000000008F
:104A24000000000000000000000000000000000082
:104A3400FFFFFFFF000000000000FFFFFFFF00007A
:104A44000000000000000000000000000000000062
:104A540000000000000000000000000000E000F87A
:104A6400007E801FE007F8017E001F007E00F80131
:104A7400E007801F007E00F800E000000000000056
:104A840000000000F01FFC3F3E381F381F381E0096
:104A94001E003C007800F000E001C003C003C00722
:104AA400C007000000000000C007C007C0070000E6
:104AB4000000000000000000F803FE0F1E1F0F3E60
:104AC4007F3CFF78EF79C773C7F38FF38FF38FF3CE
:104AD4009FF39FF3FF73FF7BF779003C1C1FFC0FD0
:104AE400F8030000000000000000000000000000C7
:104AF4000000E003E003F007F007F007780F780FF9
:104B04007C0E3C1E3C1E3E3CFE3FFF3F1F780F7850
:104B14000FF007F007F000000000000000000000A4
:104B2400000000000000F83FFC3F3E3C1E3C1E3CE1
:104B34001E3C3E3C7C3CF03FF83F7E3C1F3C1F3C0F
:104B44000F3C0F3C1F3CFE3FF83F000000000000FC
:104B540000000000000000000000FF01FF07871FA5
:104B6400003E003C007C00780078007800780078F3
:104B7400007C007C003E003F831FFF07FF01000014
:104B84000000000000000000000000000000F07FB2
:104B9400FC7F7E781F781F780F780F780F780F7856
:104BA4000F780F780F780F781F781E787E78F87F4B
:104BB400E07F000000000000000000000000000092
:104BC4000000FF3FFF3F003E003E003E003E003E2F
:104BD400003EFE3FFE3F003E003E003E003E003EE3
:104BE400003EFF3FFF3F0000000000000000000007
:104BF400000000000000FF1FFF1F001E001E001E1B
:104C0400001E001E001EFF1FFF1F001E001E001EB0
:104C1400001E001E001E001E001E000000000000FA
:104C240000000000000000000000FE03FF0F871FCB
:104C3400003E007C007C007800F800F87FF87FF8E4
:104C44000F780F7C0F7C0F3E8F1FFF0FFE030000B9
:104C540000000000000000000000000000001F7CB5
:104C64001F7C1F7C1F7C1F7C1F7C1F7C1F7CFF7F85
:104C7400FF7F1F7C1F7C1F7C1F7C1F7C1F7C1F7C75
:104C84001F7C000000000000000000000000000085
:104C94000000FF3FFF3FE003E003E003E003E00325
:104CA400E003E003E003E003E003E003E003E003E8
:104CB400E003FF3FFF3F0000000000000000000091
:104CC400000000000000FC1FFC1F7C007C007C0036
:104CD4007C007C007C007C007C007C007C007C00F0
:104CE40078007800F838F03FC03F00000000000072
:104CF400000000000000000000001F3C1E3C3C3C83
:104D0400783CF03CE03DE03FC03F803FC03FE03FA7
:104D1400F03DF03C783C7C3C3E3C1F3C0F3C0000AA
:104D24000000000000000000000000000000003E41
:104D3400003E003E003E003E003E003E003E003E7F
:104D4400003E003E003E003E003E003E003EFF3F6F
:104D5400FF3F000000000000000000000000000011
:104D640000001FF81FFC1FFC3FFE3FFE3FFE7FFFBD
:104D740077FF77FFF7F7E7F7E7F3E7F3C7F307F012
:104D840007F007F007F0000000000000000000003A
:104D94000000000000000F7C0F7C0F7E0F7F0F7F50
:104DA4008F7F8F7FCF7FEF7BEF79FF79FF78FF785D
:104DB4007F783F783F781F781F780000000000005C
:104DC40000000000000000000000F007FC1F3E3E51
:104DD4001F7C0F780F780FF80FF80FF80FF80FF803
:104DE4000FF80F780F781F7C3E3EFC1FF007000081
:104DF4000000000000000000000000000000FC3F74
:104E0400FF3F1F3E0F3E0F3E0F3E0F3E1F3E3F3EF5
:104E1400FC3FF03F003E003E003E003E003E003EB0
:104E2400003E000000000000000000000000000040
:104E34000000F007FC1F3E3E1F7C0F780F780FF830
:104E44000FF80FF80FF80FF80FF80F780F781F7C92
:104E54003E3EFC1FF8077C003F000F0003000000EB
:104E6400000000000000F03FFC3F7E3C3E3C1E3C46
:104E74001E3C3E3C3C3CFC3CF03FE03FF03DF83CFB
:104E84007C3C3E3C1E3C1F3C0F3C000000000000EC
:104E940000000000000000000000FC07FE1F0E3EA2
:104EA400003C003C003C003EC01FF80FFE037F00A6
:104EB4001F000F000F001F203E3CFC3FF01F0000AE
:104EC4000000000000000000000000000000FFFFE0
:104ED400FFFFE003E003E003E003E003E003E0039B
:104EE400E003E003E003E003E003E003E003E003A6
:104EF400E0030000000000000000000000000000CB
:104F040000000F7C0F7C0F7C0F7C0F7C0F7C0F7CD0
:104F14000F7C0F7C0F7C0F7C0F7C0F7C1E3C1E3C97
:104F24003E3EFC1FF00700000000000000000000EF
:104F340000000000000007F007F007F80F780F7C6E
:104F44001E3C1E3C1E3E3C1E3C1F781F780FF80F73
:104F5400F007F007F007E003E003000000000000A2
:104F64000000000000000000000003E003F003F074
:104F740007F0E7F3E7F3E7F3E773F77BF77FFF7FE8
:104F84007F7F7F7F7E7F7E3F3E3E3E3E3E3E0000F3
:104F9400000000000000000000000000000007F80E
:104FA4000F7C1E3E3E3E3C1FF80FF007E007E00377
:104FB400E003F007F80F7C0F7C1E3E3C1F780F784F
:104FC4000FF00000000000000000000000000000DE
:104FD400000007F807780F7C1E3C1E3E3C1F780F2C
:104FE400F80FF007E003E003E003E003E003E0036D
:104FF400E003E003E0030000000000000000000004
:10500400000000000000FF7FFF7F0F001F003E0034
:105014007C00F800F000E001E003C007800F000FFF
:10502400001E003E007CFF7FFF7F000000000000A8
:1050340000000000FF0780078007800780078007C3
:105044008007800780078007800780078007800724
:105054008007800780078007800780078007800714
:105064008007FF07FF07000000780078003C003C41
:10507400001E001E000F000F80078007C003C0033E
:10508400E001E001F000F000780078003C003C0012
:105094001E001E000F000F0007000000F07FF0004C
:1050A400F000F000F000F000F000F000F000F0007C
:1050B400F000F000F000F000F000F000F000F0006C
:1050C400F000F000F000F000F000F07FF07F00004E
:1050D400C000C001C001E003E003F007F007780757
:1050E400780F380F3C1E3C1E1E3C1E3C0F380F78B8
:1050F400077800000000000000000000000000002D
:10510400000000000000000000000000000000009B
:10511400000000000000000000000000000000008B
:105124000000000000000000000000000000FFFF7D
:10513400FFFF000000000000F0000000000000007D
:10514400000000000000000000000000000000005B
:10515400000000000000000000000000000000004B
:10516400000000000000000000000000000000003B
:105174000000000000000000F80FFC3F7C3C3E00F3
:105184003E003E00FE07FE1F3E3E3E7C3E783E7CD7
:105194007E7CFF3FCF1F00000000000000000000E5
:1051A400003C003C003C003C003C003CF83DFE3F21
:1051B4003E3F1F3E0F3C0F3C0F3C0F3C0F3C0F3C4F
:1051C4001F3C1E3C3E3FFC3FF03B00000000000043
:1051D40000000000000000000000000000000000CB
:1051E400FE03FF0F871F003E003E003C007C007C56
:1051F400007C003C003E003E871FFF0FFE030000C2
:1052040000000000000000001F001F001F001F001E
:105214001F001F00FF07FF1F3F3E1F3C1F7C1F7C1A
:105224001F7C1F781F781F7C1F7C3F3C7F3EFF1F25
:10523400DF0F00000000000000000000000000007C
:105244000000000000000000F803FC0F3E1F1E3E9B
:105254001F3C1F7CFF7FFF7F007C007C003C003EE6
:10526400071FFF0FFE030000000000000000000005
:10527400FF01E103C003C007C007C007FF7FFF7F32
:10528400C007C007C007C007C007C007C007C007E2
:10529400C007C007C007C007C00700000000000027
:1052A40000000000000000000000000000000000FA
:1052B400EF07FF1F7F3E1F3C1F7C1F7C1F781F785A
:1052C4001F781F7C1F7C3F3C7F3EFF1FDF0F1E00AB
:1052D4001E001E007C38F83F003C003C003C003CB3
:1052E400003C003CFC3DFE3F9E3F1F3F1F3E1F3CD9
:1052F4001F3C1F3C1F3C1F3C1F3C1F3C1F3C1F3CD2
:105304001F3C00000000000000000000F001F0015C
:105314000000000000000000E07FE07FE001E00109
:10532400E001E001E001E001E001E001E001E00171
:10533400E001E001E00100000000000000000000C6
:10534400F800F8000000000000000000F83FF83FFB
:10535400F800F800F800F800F800F800F800F80089
:10536400F800F800F800F800F800F800F800F00081
:10537400F071E07F003C003C003C003C003C003C01
:105384001F3C3E3C7C3CF83CF03DE03DC03FC03F10
:10539400E03FF03DF83C7C3C3E3C1F3C1F3C0000A1
:1053A4000000000000000000F07FF001F001F001B7
:1053B400F001F001F001F001F001F001F001F00161
:1053C400F001F001F001F001F001F001F001F00151
:1053D400F0010000000000000000000000000000D8
:1053E40000000000000000009EF7FFFFFFFFFFFF2A
:1053F400E7FBE7F9C7F1C7F1C7F1C7F1C7F1C7F197
:10540400C7F1C7F1C7F10000000000000000000070
:10541400000000000000000000000000FC3DFE3F12
:105424009E3F1F3F1F3E1F3C1F3C1F3C1F3C1F3C19
:105434001F3C1F3C1F3C1F3C1F3C000000000000A1
:105444000000000000000000000000000000000058
:10545400F007FC1F3E3E1F3C1F7C0F780F780F782F
:105464000F780F781F7C1F3C3E3EFC1FF0070000A6
:105474000000000000000000000000000000000028
:1054840000000000F83DFE3F3E3F1F3E0F3C0F3C36
:105494000F3C0F3C0F3C0F3C1F3C1E3E3E3FFC3F6D
:1054A400F83F003C003C003C003C003C0000000095
:1054B4000000000000000000EE07FE1F7E3E1E3CC0
:1054C4001E7C1E781E781E781E781E781E7C3E7CFC
:1054D4007E3EFE1FDE0F1E001E001E001E001E006C
:1054E4000000000000000000000000007F1FFF1FFC
:1054F400E71FC71F871F001F001F001F001F001F7B
:10550400001F001F001F001F001F000000000000FC
:105514000000000000000000000000000000000087
:10552400FC07FE1F0E1E003E003E003FE01FFC076E
:10553400FE003E001E001E003E3CFC3FF01F00002B
:1055440000000000000000000000000000008007D0
:1055540080078007FF7FFF7F800780078007800721
:10556400800780078007800780078007C007FF0344
:10557400FF01000000000000000000000000000027
:1055840000000000000000001E3C1E3C1E3C1E3CAF
:105594001E3C1E3C1E3C1E3C1E3C1E3C3E3C7E3CB7
:1055A400FE3EFE1FDE0F00000000000000000000B1
:1055B40000000000000000000000000007F00F7869
:1055C4000F781E3C1E3C1E3E3C1E3C1E780F780F7E
:1055D400F00FF007F007E003E00300000000000014
:1055E40000000000000000000000000000000000B7
:1055F40003F0E3F1E3F3E7F3F7F3F7F3F77F777FF0
:105604007F7F7F7F7F7F3E3E3E3E3E3E3E3E0000AC
:105614000000000000000000000000000000000086
:10562400000000000F7C1E3E3C3E3C1FF80FF007BC
:10563400F007E003F007F807F80F7C1E3E3E1F3C1E
:105644001F780000000000000000000000000000BF
:10565400000000000000000007F80F780F7C1E3CDB
:105664001E3C3C1E3C1E3C1F780FF80FF007F00751
:10567400E003E003C003C003C0038007800F007F82
:10568400000000000000000000000000FF3FFF3F9A
:105694001F003E007C00F800F001E003C007800F0B
:1056A400001F001E003CFF7FFF7F00000000000081
:1056B40000000000FE01E003C003C003C003C003F8
:1056C400E001E001E001C001C003803F803FC0036E
:1056D400C001E001E001E001C003C003C003C00356
:1056E400E003FE017E000000C001C001C001C00152
:1056F400C001C001C001C001C001C001C001C0019E
:10570400C001C001C001C001C001C001C001C0018D
:10571400C001C001C001C001C0010000C03FE003DE
:10572400E001E001E001E001C001C003C003C001E9
:10573400E001FE00FE00E001C001C003C003C0019F
:10574400E001E001E001E001E003C03F003F0000B0
:105754000000000000000000000000000000000045
:10576400000000000000073FC77FE773FFF17EF0F1
:105774000000000000000000000000000000000025
:10578400000000005372632F6164632E6300000005
:105794005372632F6932632E630000005372632FC8
:1057A4007370692E630000005372632F74696D2E49
:1057B400630000005372632F75736172742E63006B
:1057C40070240008842400089C2400080025000894
:1057D400D024000800250008002500080025000842
:1057E400E8240008222500083A250008522500086C
:1057F400C82500088A250008C8250008C82500080F
:10580400C8250008A22500081C3400082E3300080F
:10581400643300081C3400089A3300081C34000860
:105824001C3400081C340008DE3300081C34000853
:105834001C3400081C3400081C3400081C34000804
:105844001C3400081C3400080E3400081C34000802
:105854001C3400081C3400081C3400081C340008E4
:105864001C3400081C3400081C3400081C340008D4
:105874001C3400081C3400081C3400081C340008C4
:105884001C3400081C340008C0320008000000006A
:1058940000000000010203040607080900000000DC
:1058A40001020304030406080C10182030430068A6
:1058B4006C4C00412D46612D663839303132333419
:1058C4003536375D002B2D0030300078580000202D
:1058D400202020202020202028282828282020209C
:1058E400202020202020202020202020202020884C
:1058F40010101010101010101010101010101004B0
:1059040004040404040404040410101010101010FF
:1059140041414141414101010101010101010101F3
:105924000101010101010101010110101010101009
:1059340042424242424202020202020202020202C3
:1059440002020202020202020202101010102000DF
:105954000000000000000000000000000000000043
:105964000000000000000000000000000000000033
:105974000000000000000000000000000000000023
:105984000000000000000000000000000000000013
:105994000000000000000000000000000000000003
:1059A40000000000000000000000000000000000F3
:1059B40000000000000000000000000000000000E3
:1059C40000000000000000000000000000000000D3
:1059D40000000000000000000000000000000000C3
:1059E40000000000000000000000000000000000B3
:1059F40000000000000000000000000000000000A3
:105A04000000000000000000000000000000000092
:105A14000000000000000000000000000000000082
:105A24000000000000000000000000000000000072
:085A340044ABFF7F01000000FC
:045A3C003901000824
:045A40000D0100084C
:105A44000A0000000B000000320000000B00000000
:105A540008000000101A00003C44000880841E0066
:105A640000000000D4590008F4590008145A000832
:105A74000000000000000000000000000000000022
:105A8400B158000800000000000000000000000001
:105A94000000000000000000000000000000000002
:105AA40000000000000000000000000000000000F2
:105AB40000000000000000000000000000000000E2
:085AC40020000020D258000868
:040000050800376D4B
